:100000000C9465000C9482000C9482000C94820085
:100010000C9482000C9482000C9482000C94820058
:100020000C9482000C9482000C9482000C94820048
:100030000C9482000C9482000C9482000C94820038
:100040000C94F6000C9482000C9482000C948200B4
:100050000C9482000C9482000C9482000C94820018
:100060000C9482000C9482000C9400000C9400000C
:100070000C9400000C9400000000000025002800F3
:100080002B002E0000000000240027002A002D0075
:10009000040404040404040402020202020203032E
:1000A000030303030505050505050503010204080F
:1000B00010204080010204081020010204081020D2
:1000C0000208010410402040230211241FBECFEF7C
:1000D000D8E0DEBFCDBF21E0A0E0B1E001C01D92BD
:1000E000A531B207E1F710E0C5E6D0E004C02197E2
:1000F000FE010E944002C436D107C9F70E943C01AC
:100100000C9446020C9400003FB7F89480911101C2
:1001100090911201A0911301B091140126B5A89BF2
:1001200005C02F3F19F00196A11DB11D3FBFBA2F89
:10013000A92F982F8827BC01CD01620F711D811D49
:10014000911D660F771F881F991F0895CF92DF9228
:10015000EF92FF927C010E9484009B01AC012E0D66
:100160003F1D411D511D69017A0129980E9484009B
:10017000C616D706E806F90628F03AE83A95F1F7E8
:1001800000C0F4CF299AFF90EF90DF90CF900895B0
:10019000EF92FF920F931F93CF93DF93062F10E000
:1001A000D0E0C0E0E82EF12CC017D107C1F0C701A4
:1001B0000C2E02C0959587950A94E2F780FF0CC03B
:1001C00080EB94E00E94A6008FEB92E10197F1F79B
:1001D00000C000002196E8CF88E592E0F3CFDF91E0
:1001E000CF911F910F91FF90EF9008951F920F9262
:1001F0000FB60F9211242F933F938F939F93AF933A
:10020000BF9380910D0190910E01A0910F01B091CB
:10021000100130910C0120E4230F2D3728F023EC3E
:10022000230F0196A11DB11D20930C0180930D0198
:1002300090930E01A0930F01B093100180911101D2
:1002400090911201A0911301B09114010196A11D8A
:10025000B11D8093110190931201A0931301B093EB
:100260001401BF91AF919F918F913F912F910F906A
:100270000FBE0F901F901895CF93DF9300D0CDB78E
:10028000DEB78091F20080618EBB80E88093F2003F
:100290009EB39093F2008093610091E0909361008F
:1002A0009091F2009F799EBB8093F2009EB3909351
:1002B000F2009091F2009B7F9EBB8093F2009EB370
:1002C0009093F2008093610010926100789484B55D
:1002D000826084BD84B5816084BD85B5826085BD42
:1002E00085B5816085BD80916E00816080936E00D0
:1002F00010928100809181008260809381008091C2
:100300008100816080938100809180008160809372
:1003100080008091B10084608093B1008091B00032
:1003200081608093B0008091910082608093910001
:100330008091910081608093910080919000816014
:100340008093900080917A00846080937A008091FD
:100350007A008D7F80937A0080917A008E7F8093DF
:100360007A0080917A00806880937A001092C100B0
:1003700000E010E0FF24F39480910401811115C086
:100380002FB7F89480910D0190910E01A0910F016B
:10039000B09110012FBF8093000190930101A093B1
:1003A0000201B0930301F09204012FB7F8948091F9
:1003B0000D0190910E01A0910F01B09110012FBF7E
:1003C000409100015091010160910201709103017F
:1003D0005C016D01A41AB50AC60AD70AB601A501C7
:1003E000493651406105710538F1809300019093C1
:1003F0000101A0930201B09303018FEF93E921E182
:10040000815090402040E1F700C0000080E699E074
:100410000E94A6008FEB92E10197F1F700C0000067
:1004200068E08CE80E94C80068E08BE20E94C80087
:1004300060E08B810E94C8000115110509F49CCF72
:100440000E94000099CFE5EBF0E02491E9E9F0E0AB
:100450008491882399F090E0880F991FFC01EC5754
:10046000FF4FA591B491FC01E858FF4F85919491FD
:100470008FB7F894EC91E22BEC938FBF299A0895F3
:10048000EE0FFF1F0590F491E02D0994F894FFCF33
:00000001FF
